:100000000C942A000C943F000C943F000C943F0089
:100010000C943F000C943F000C943F000C943F0064
:100020000C943F000C943F000C943F000C943F0054
:100030000C943F000C943F000C943F000C943F0044
:100040000C943F000C943F000C943F000C943F0034
:100050000C943F0011241FBECFE5D8E0DEBFCDBF1A
:1000600010E0A0E6B0E0ECE9F4E002C005900D92EB
:10007000A23AB107D9F70E9445010C944C020C94A6
:100080000000DC0120E030E040E00AC040E0FD017B
:10009000E20FF31F8081851709F441E02F5F3F4F86
:1000A000FB01E20FF31F5081552381F7842F089540
:1000B0009B01AC0188E18AB986E880BD84E0220F0B
:1000C000331F441F551F8A95D1F760E072E18AE71C
:1000D00090E00E94E501215029B908955D9BFECF73
:1000E0008CB90895FC0104C05D9BFECF8CB931969C
:1000F00080818823C9F75D9BFECF1CB808955F9B64
:10010000FECF8CB10895FC015F9BFECF8CB1808344
:1001100005C05F9BFECF8CB1818331968081833295
:10012000C1F710820895DB9820ED37E0F90131978F
:10013000F1F7969AF9013197F1F798B3907F98BB50
:10014000982F92959F7098BB9698F9013197F1F787
:10015000DB98969AF9013197F1F798B3907F98BBA5
:1001600098B38F70982B98BB9698C9010197F1F7B7
:100170000895D39A8E9A87B38F6087BB82E00E94DE
:10018000930088E20E94930080ED97E00197F1F7D9
:1001900081E00E9493008CE00E949300089581E02A
:1001A0000E9493000895DB9A20ED37E0F901319722
:1001B000F1F7969AF9013197F1F798B3907F98BBD0
:1001C000982F92959F7098BB9698F9013197F1F707
:1001D000DB9A969AF9013197F1F798B3907F98BB23
:1001E0008F7088BB9698C9010197F1F70895CF9356
:1001F000DF93EC0102C00E94D30089918823D9F7D4
:10020000DF91CF910895813041F0813058F08230F4
:1002100031F0833031F060E005C0605C03C0605FA6
:1002200001C0605B862F80680E94930008950F9341
:100230001F938A010E940301C8010E94F7001F91C9
:100240000F9108950F931F93CF93DF938B01883005
:1002500090F4880F880F880F805C0E949300C0E0A4
:10026000D0E0F801EC0FFD1F80810E94D3002196A1
:10027000C830D105B1F7DF91CF911F910F9108954B
:100280004AE050E00E9407020895EF92FF920F9318
:100290001F93DF93CF93CDB7DEB72A970FB6F894AD
:1002A000DEBF0FBECDBF8FEF84BB15BA0E94B90071
:1002B0000E94CF0080E060E040E650E00E9417011D
:1002C00080E197E228EC30E0F9013197F1F70197EE
:1002D000D9F70E94CF0060E875E280E090E00E94CC
:1002E000580086E690E00E94720080E197E228ECD8
:1002F00030E0F9013197F1F70197D9F780E197E202
:1003000028EC30E0F9013197F1F70197D9F780E156
:1003100097E228EC30E0F9013197F1F70197D9F72E
:100320008E010F5F1F4F88ECE82EF12CC8010E9450
:10033000830081E061E0A8010E941701C80165E720
:1003400070E00E944100882321F0AA9AA89AA998F7
:1003500032C0C8016CE770E00E944100882321F0A0
:10036000AB9AAC9AAD9827C0C80163E870E00E94D0
:100370004100882311F0AA981EC0C80169E870E006
:100380000E944100882311F0AB9815C0C8016FE8A6
:1003900070E00E944100882321F0AA9AA99AA898A7
:1003A0000AC0C80168E970E00E944100882319F082
:1003B000AB9AAD9AAC9880E197E2F7013197F1F7EB
:1003C0000197D9F70E94CF00B1CFA1E21A2EAA1B44
:1003D000BB1BFD010DC0AA1FBB1FEE1FFF1FA217F5
:1003E000B307E407F50720F0A21BB30BE40BF50BF2
:1003F000661F771F881F991F1A9469F7609570957B
:10040000809590959B01AC01BD01CF010895FB0142
:100410009F01E8944230C4F04532B4F44A3029F4E4
:1004200097FB1EF4909581959F4F642F77270E942C
:100430003802805D8A330CF0895D8193CB0100978F
:10044000A1F716F45DE251931082C9010C942802C1
:10045000DC01FC01672F71917723E1F7329704C02B
:100460007C916D9370836291AE17BF07C8F30895B6
:10047000AA1BBB1B51E107C0AA1FBB1FA617B707CA
:1004800010F0A61BB70B881F991F5A95A9F78095E6
:0C0490009095BC01CD010895F894FFCFB9
:10049C0048656C6C6F00546172656B2047616C61D0
:1004AC006C203A2900737461727441007374617228
:1004BC0074420073746F70410073746F70420072F9
:1004CC006576657273654100726576657273654217
:0204DC0000001E
:00000001FF
